:100000000C942A000C94A7000C9447000C94470011
:100010000C9447000C9447000C9447000C94470044
:100020000C9447000C9447000C9447000C94470034
:100030000C9447000C9447000C9447000C94470024
:100040000C9447000C9447000C9447000C94470014
:100050000C94470011241FBECFE5D8E0DEBFCDBF12
:1000600010E0A0E6B0E0EEE6F3E002C005900D92ED
:10007000AC37B107D9F720E0ACE7B0E001C01D9282
:10008000A038B207E1F70E94D7000C94B5010C9498
:100090000000959A00000000959808951ABA949A65
:1000A0009398DF9B03C00E944900FBCF8FEF8ABB70
:1000B0000895CF93C82F0E944E00CBBB949893987D
:1000C0000E9449001BBACF91089581B3886381BB18
:1000D00085EA9EE00197F1F700C0000081E00E94F0
:1000E000590083EF91E00197F1F700C0000088E329
:1000F0000E94590090E19A95F1F700C08EE00E94AD
:10010000590080E18A95F1F700C00895CF93C82F78
:100110000E944E00CBBB9498939A0E9449001BBA50
:10012000CF910895CF93DF93EC01899118161CF4B9
:100130000E948600FACFDF91CF910895E62FF0E07C
:10014000E15AFF4F81589081890F0C9459001F92FA
:100150000F920FB60F9211248F939F9380917C0082
:1001600090917D00019769F41EBC8CB59DB590936C
:100170007F0080937E001DBC1CBC10927D001092FD
:100180007C0080917C0090917D00892B49F48EB594
:1001900081608EBD81E090E090937D0080937C0033
:1001A0009F918F910F900FBE0F901F901895CF9336
:1001B000DF93CDB7DEB760970FB6F894DEBF0FBE02
:1001C000CDBF0E9465008BEF81BB8FEF87BB83EDB6
:1001D00090E30197F1F700C000000E9465008BB723
:1001E00080648BBF85B7816085BF78948AE3C82E11
:1001F000D12CFF24F394909A95E09A95F1F790987A
:1002000080917E0090917F00B6010E9458018B0181
:100210006E31710514F4F8BA1DC06832710534F4FA
:10022000F8BA83ED90E30197F1F711C062337105DD
:1002300034F4F8BA87EA91E60197F1F708C06C3315
:1002400071053CF4F8BA8BE792E90197F1F700C029
:10025000000018BA82E690E00E94920062E081E01D
:100260000E949E0082E790E00E9492004AE0BE0158
:100270006F5F7F4FC8010E948001CE0101960E94EE
:1002800092008FE493EC0197F1F700C0000086E73D
:1002900090E00E94920062E08DE00E949E0088E75C
:1002A00090E00E94920061E081E00E949E00A3CF56
:1002B00097FB072E16F4009407D077FD09D00E9413
:1002C0006C0107FC05D03EF4909581959F4F0895F1
:1002D000709561957F4F0895AA1BBB1B51E107C024
:1002E000AA1FBB1FA617B70710F0A61BB70B881FC6
:1002F000991F5A95A9F780959095BC01CD01089555
:10030000BB274A3031F4992322F4BDE290958195C0
:100310009F4F0C948C01BB27FB015527AA27880F00
:10032000991FAA1FA41710F0A41B83955051B9F769
:10033000A05DAA3308F0A95DA193009779F7B111E8
:10034000B1931192CB010C94A501DC01FC01672F44
:1003500071917723E1F7329704C07C916D9370839C
:0E0360006291AE17BF07C8F30895F894FFCF5F
:10036E00004044697374616E63652053656E736FEC
:0C037E00720044203D002000636D000070
:00000001FF
